{
  "contractName": "Campaign",
  "abi": [
    {
      "inputs": [
        {
          "internalType": "string",
          "name": "campaignName",
          "type": "string"
        },
        {
          "internalType": "string",
          "name": "campaignDescription",
          "type": "string"
        },
        {
          "internalType": "uint256",
          "name": "minimum",
          "type": "uint256"
        },
        {
          "internalType": "uint256",
          "name": "target",
          "type": "uint256"
        },
        {
          "internalType": "uint256",
          "name": "deadlineDate",
          "type": "uint256"
        },
        {
          "internalType": "address",
          "name": "creator",
          "type": "address"
        }
      ],
      "payable": false,
      "stateMutability": "nonpayable",
      "type": "constructor"
    },
    {
      "constant": true,
      "inputs": [
        {
          "internalType": "uint256",
          "name": "",
          "type": "uint256"
        }
      ],
      "name": "approverAddresses",
      "outputs": [
        {
          "internalType": "address",
          "name": "",
          "type": "address"
        }
      ],
      "payable": false,
      "stateMutability": "view",
      "type": "function"
    },
    {
      "constant": true,
      "inputs": [
        {
          "internalType": "address",
          "name": "",
          "type": "address"
        }
      ],
      "name": "approvers",
      "outputs": [
        {
          "internalType": "uint256",
          "name": "",
          "type": "uint256"
        }
      ],
      "payable": false,
      "stateMutability": "view",
      "type": "function"
    },
    {
      "constant": true,
      "inputs": [],
      "name": "approversCount",
      "outputs": [
        {
          "internalType": "uint256",
          "name": "",
          "type": "uint256"
        }
      ],
      "payable": false,
      "stateMutability": "view",
      "type": "function"
    },
    {
      "constant": true,
      "inputs": [],
      "name": "deadline",
      "outputs": [
        {
          "internalType": "uint256",
          "name": "",
          "type": "uint256"
        }
      ],
      "payable": false,
      "stateMutability": "view",
      "type": "function"
    },
    {
      "constant": true,
      "inputs": [],
      "name": "description",
      "outputs": [
        {
          "internalType": "string",
          "name": "",
          "type": "string"
        }
      ],
      "payable": false,
      "stateMutability": "view",
      "type": "function"
    },
    {
      "constant": true,
      "inputs": [],
      "name": "manager",
      "outputs": [
        {
          "internalType": "address",
          "name": "",
          "type": "address"
        }
      ],
      "payable": false,
      "stateMutability": "view",
      "type": "function"
    },
    {
      "constant": true,
      "inputs": [],
      "name": "minimumContribution",
      "outputs": [
        {
          "internalType": "uint256",
          "name": "",
          "type": "uint256"
        }
      ],
      "payable": false,
      "stateMutability": "view",
      "type": "function"
    },
    {
      "constant": true,
      "inputs": [],
      "name": "name",
      "outputs": [
        {
          "internalType": "string",
          "name": "",
          "type": "string"
        }
      ],
      "payable": false,
      "stateMutability": "view",
      "type": "function"
    },
    {
      "constant": true,
      "inputs": [],
      "name": "requestIndex",
      "outputs": [
        {
          "internalType": "uint256",
          "name": "",
          "type": "uint256"
        }
      ],
      "payable": false,
      "stateMutability": "view",
      "type": "function"
    },
    {
      "constant": true,
      "inputs": [
        {
          "internalType": "uint256",
          "name": "",
          "type": "uint256"
        }
      ],
      "name": "requests",
      "outputs": [
        {
          "internalType": "uint256",
          "name": "amount",
          "type": "uint256"
        },
        {
          "internalType": "string",
          "name": "description",
          "type": "string"
        },
        {
          "internalType": "address payable",
          "name": "recipient",
          "type": "address"
        },
        {
          "internalType": "bool",
          "name": "isCompleted",
          "type": "bool"
        },
        {
          "internalType": "uint256",
          "name": "approvalsCount",
          "type": "uint256"
        }
      ],
      "payable": false,
      "stateMutability": "view",
      "type": "function"
    },
    {
      "constant": true,
      "inputs": [],
      "name": "targetContribution",
      "outputs": [
        {
          "internalType": "uint256",
          "name": "",
          "type": "uint256"
        }
      ],
      "payable": false,
      "stateMutability": "view",
      "type": "function"
    },
    {
      "constant": false,
      "inputs": [],
      "name": "contribution",
      "outputs": [],
      "payable": true,
      "stateMutability": "payable",
      "type": "function"
    },
    {
      "constant": false,
      "inputs": [],
      "name": "fallback",
      "outputs": [],
      "payable": true,
      "stateMutability": "payable",
      "type": "function"
    },
    {
      "constant": false,
      "inputs": [
        {
          "internalType": "uint256",
          "name": "amount",
          "type": "uint256"
        },
        {
          "internalType": "string",
          "name": "des",
          "type": "string"
        },
        {
          "internalType": "address payable",
          "name": "recipient",
          "type": "address"
        }
      ],
      "name": "createRequest",
      "outputs": [],
      "payable": false,
      "stateMutability": "nonpayable",
      "type": "function"
    },
    {
      "constant": false,
      "inputs": [
        {
          "internalType": "uint256",
          "name": "index",
          "type": "uint256"
        }
      ],
      "name": "approveRequest",
      "outputs": [],
      "payable": false,
      "stateMutability": "nonpayable",
      "type": "function"
    },
    {
      "constant": false,
      "inputs": [
        {
          "internalType": "uint256",
          "name": "index",
          "type": "uint256"
        }
      ],
      "name": "finalizeRequest",
      "outputs": [],
      "payable": false,
      "stateMutability": "nonpayable",
      "type": "function"
    },
    {
      "constant": true,
      "inputs": [
        {
          "internalType": "uint256",
          "name": "index",
          "type": "uint256"
        }
      ],
      "name": "getIsApprovedRequest",
      "outputs": [
        {
          "internalType": "bool",
          "name": "",
          "type": "bool"
        }
      ],
      "payable": false,
      "stateMutability": "view",
      "type": "function"
    },
    {
      "constant": true,
      "inputs": [],
      "name": "getApproverAddresses",
      "outputs": [
        {
          "internalType": "address[]",
          "name": "",
          "type": "address[]"
        }
      ],
      "payable": false,
      "stateMutability": "view",
      "type": "function"
    },
    {
      "constant": true,
      "inputs": [],
      "name": "getSummary",
      "outputs": [
        {
          "internalType": "string",
          "name": "",
          "type": "string"
        },
        {
          "internalType": "string",
          "name": "",
          "type": "string"
        },
        {
          "internalType": "uint256",
          "name": "",
          "type": "uint256"
        },
        {
          "internalType": "uint256",
          "name": "",
          "type": "uint256"
        },
        {
          "internalType": "uint256",
          "name": "",
          "type": "uint256"
        },
        {
          "internalType": "uint256",
          "name": "",
          "type": "uint256"
        },
        {
          "internalType": "uint256",
          "name": "",
          "type": "uint256"
        },
        {
          "internalType": "uint256",
          "name": "",
          "type": "uint256"
        },
        {
          "internalType": "address",
          "name": "",
          "type": "address"
        }
      ],
      "payable": false,
      "stateMutability": "view",
      "type": "function"
    }
  ],
  "bytecode": "0x60806040523480156200001157600080fd5b506040516200185438038062001854833981810160405260c08110156200003757600080fd5b81019080805160405193929190846401000000008211156200005857600080fd5b838201915060208201858111156200006f57600080fd5b82518660018202830111640100000000821117156200008d57600080fd5b8083526020830192505050908051906020019080838360005b83811015620000c3578082015181840152602081019050620000a6565b50505050905090810190601f168015620000f15780820380516001836020036101000a031916815260200191505b50604052602001805160405193929190846401000000008211156200011557600080fd5b838201915060208201858111156200012c57600080fd5b82518660018202830111640100000000821117156200014a57600080fd5b8083526020830192505050908051906020019080838360005b838110156200018057808201518184015260208101905062000163565b50505050905090810190601f168015620001ae5780820380516001836020036101000a031916815260200191505b50604052602001805190602001909291908051906020019092919080519060200190929190805190602001909291905050508560009080519060200190620001f892919062000284565b5084600190805190602001906200021192919062000284565b5083600381905550826004819055508160058190555080600260006101000a81548173ffffffffffffffffffffffffffffffffffffffff021916908373ffffffffffffffffffffffffffffffffffffffff1602179055506000600781905550600060098190555050505050505062000333565b828054600181600116156101000203166002900490600052602060002090601f016020900481019282601f10620002c757805160ff1916838001178555620002f8565b82800160010185558215620002f8579182015b82811115620002f7578251825591602001919060010190620002da565b5b5090506200030791906200030b565b5090565b6200033091905b808211156200032c57600081600090555060010162000312565b5090565b90565b61151180620003436000396000f3fe608060405260043610610131576000357c010000000000000000000000000000000000000000000000000000000090048063552079dc116100bd578063977c328611610081578063977c3286146106b9578063b82c86d614610734578063bc8e7f251461075f578063ce9ac84d146107cb578063d7d1bbdb146108bd57610131565b8063552079dc146104c95780637284e416146104d357806381d12c581461056357806382fde09314610663578063937e09b11461068e57610131565b80634051ddac116101045780634051ddac14610291578063420714bd146103ea578063481c6a75146104155780634a8eac9f1461046c57806350520b1f146104bf57610131565b8063034410061461013657806306fdde03146101715780630a1443911461020157806329dcb0cf14610266575b600080fd5b34801561014257600080fd5b5061016f6004803603602081101561015957600080fd5b81019080803590602001909291905050506108f8565b005b34801561017d57600080fd5b50610186610a9a565b6040518080602001828103825283818151815260200191508051906020019080838360005b838110156101c65780820151818401526020810190506101ab565b50505050905090810190601f1680156101f35780820380516001836020036101000a031916815260200191505b509250505060405180910390f35b34801561020d57600080fd5b506102506004803603602081101561022457600080fd5b81019080803573ffffffffffffffffffffffffffffffffffffffff169060200190929190505050610b38565b6040518082815260200191505060405180910390f35b34801561027257600080fd5b5061027b610b50565b6040518082815260200191505060405180910390f35b34801561029d57600080fd5b506102a6610b56565b6040518080602001806020018a81526020018981526020018881526020018781526020018681526020018581526020018473ffffffffffffffffffffffffffffffffffffffff1673ffffffffffffffffffffffffffffffffffffffff16815260200183810383528c818151815260200191508051906020019080838360005b83811015610340578082015181840152602081019050610325565b50505050905090810190601f16801561036d5780820380516001836020036101000a031916815260200191505b5083810382528b818151815260200191508051906020019080838360005b838110156103a657808201518184015260208101905061038b565b50505050905090810190601f1680156103d35780820380516001836020036101000a031916815260200191505b509b50505050505050505050505060405180910390f35b3480156103f657600080fd5b506103ff610d06565b6040518082815260200191505060405180910390f35b34801561042157600080fd5b5061042a610d0c565b604051808273ffffffffffffffffffffffffffffffffffffffff1673ffffffffffffffffffffffffffffffffffffffff16815260200191505060405180910390f35b34801561047857600080fd5b506104a56004803603602081101561048f57600080fd5b8101908080359060200190929190505050610d32565b604051808215151515815260200191505060405180910390f35b6104c7610da1565b005b6104d1610efa565b005b3480156104df57600080fd5b506104e8610efc565b6040518080602001828103825283818151815260200191508051906020019080838360005b8381101561052857808201518184015260208101905061050d565b50505050905090810190601f1680156105555780820380516001836020036101000a031916815260200191505b509250505060405180910390f35b34801561056f57600080fd5b5061059c6004803603602081101561058657600080fd5b8101908080359060200190929190505050610f9a565b60405180868152602001806020018573ffffffffffffffffffffffffffffffffffffffff1673ffffffffffffffffffffffffffffffffffffffff16815260200184151515158152602001838152602001828103825286818151815260200191508051906020019080838360005b83811015610624578082015181840152602081019050610609565b50505050905090810190601f1680156106515780820380516001836020036101000a031916815260200191505b50965050505050505060405180910390f35b34801561066f57600080fd5b50610678611095565b6040518082815260200191505060405180910390f35b34801561069a57600080fd5b506106a361109b565b6040518082815260200191505060405180910390f35b3480156106c557600080fd5b506106f2600480360360208110156106dc57600080fd5b81019080803590602001909291905050506110a1565b604051808273ffffffffffffffffffffffffffffffffffffffff1673ffffffffffffffffffffffffffffffffffffffff16815260200191505060405180910390f35b34801561074057600080fd5b506107496110dd565b6040518082815260200191505060405180910390f35b34801561076b57600080fd5b506107746110e3565b6040518080602001828103825283818151815260200191508051906020019060200280838360005b838110156107b757808201518184015260208101905061079c565b505050509050019250505060405180910390f35b3480156107d757600080fd5b506108bb600480360360608110156107ee57600080fd5b81019080803590602001909291908035906020019064010000000081111561081557600080fd5b82018360208201111561082757600080fd5b8035906020019184600183028401116401000000008311171561084957600080fd5b91908080601f016020809104026020016040519081016040528093929190818152602001838380828437600081840152601f19601f820116905080830192505050505050509192919290803573ffffffffffffffffffffffffffffffffffffffff169060200190929190505050611171565b005b3480156108c957600080fd5b506108f6600480360360208110156108e057600080fd5b81019080803590602001909291905050506112ed565b005b600260009054906101000a900473ffffffffffffffffffffffffffffffffffffffff1673ffffffffffffffffffffffffffffffffffffffff163373ffffffffffffffffffffffffffffffffffffffff16146109bb576040517f08c379a00000000000000000000000000000000000000000000000000000000081526004018080602001828103825260168152602001807f53656e646572206e6f7420617574686f72697a65642e0000000000000000000081525060200191505060405180910390fd5b6000600a600083815260200190815260200160002090506002600754816109de57fe5b048160030154116109ee57600080fd5b8060020160149054906101000a900460ff1615610a0a57600080fd5b8060020160009054906101000a900473ffffffffffffffffffffffffffffffffffffffff1673ffffffffffffffffffffffffffffffffffffffff166108fc82600001549081150290604051600060405180830381858888f19350505050158015610a78573d6000803e3d6000fd5b5060018160020160146101000a81548160ff0219169083151502179055505050565b60008054600181600116156101000203166002900480601f016020809104026020016040519081016040528092919081815260200182805460018160011615610100020316600290048015610b305780601f10610b0557610100808354040283529160200191610b30565b820191906000526020600020905b815481529060010190602001808311610b1357829003601f168201915b505050505081565b60086020528060005260406000206000915090505481565b60055481565b60608060008060008060008060008060016003546004546005543073ffffffffffffffffffffffffffffffffffffffff1631600954600754600260009054906101000a900473ffffffffffffffffffffffffffffffffffffffff16888054600181600116156101000203166002900480601f016020809104026020016040519081016040528092919081815260200182805460018160011615610100020316600290048015610c465780601f10610c1b57610100808354040283529160200191610c46565b820191906000526020600020905b815481529060010190602001808311610c2957829003601f168201915b50505050509850878054600181600116156101000203166002900480601f016020809104026020016040519081016040528092919081815260200182805460018160011615610100020316600290048015610ce25780601f10610cb757610100808354040283529160200191610ce2565b820191906000526020600020905b815481529060010190602001808311610cc557829003601f168201915b50505050509750985098509850985098509850985098509850909192939495969798565b60095481565b600260009054906101000a900473ffffffffffffffffffffffffffffffffffffffff1681565b600080600a600084815260200190815260200160002090508060040160003373ffffffffffffffffffffffffffffffffffffffff1673ffffffffffffffffffffffffffffffffffffffff16815260200190815260200160002060009054906101000a900460ff16915050919050565b6003543411610df3576040517f08c379a0000000000000000000000000000000000000000000000000000000008152600401808060200182810382526000815260200160200191505060405180910390fd5b6000600860003373ffffffffffffffffffffffffffffffffffffffff1673ffffffffffffffffffffffffffffffffffffffff168152602001908152602001600020541415610ef85734600860003373ffffffffffffffffffffffffffffffffffffffff1673ffffffffffffffffffffffffffffffffffffffff1681526020019081526020016000208190555060063390806001815401808255809150509060018203906000526020600020016000909192909190916101000a81548173ffffffffffffffffffffffffffffffffffffffff021916908373ffffffffffffffffffffffffffffffffffffffff160217905550506007600081548092919060010191905055505b565b565b60018054600181600116156101000203166002900480601f016020809104026020016040519081016040528092919081815260200182805460018160011615610100020316600290048015610f925780601f10610f6757610100808354040283529160200191610f92565b820191906000526020600020905b815481529060010190602001808311610f7557829003601f168201915b505050505081565b600a602052806000526040600020600091509050806000015490806001018054600181600116156101000203166002900480601f01602080910402602001604051908101604052809291908181526020018280546001816001161561010002031660029004801561104c5780601f106110215761010080835404028352916020019161104c565b820191906000526020600020905b81548152906001019060200180831161102f57829003601f168201915b5050505050908060020160009054906101000a900473ffffffffffffffffffffffffffffffffffffffff16908060020160149054906101000a900460ff16908060030154905085565b60075481565b60035481565b600681815481106110ae57fe5b906000526020600020016000915054906101000a900473ffffffffffffffffffffffffffffffffffffffff1681565b60045481565b6060600680548060200260200160405190810160405280929190818152602001828054801561116757602002820191906000526020600020905b8160009054906101000a900473ffffffffffffffffffffffffffffffffffffffff1673ffffffffffffffffffffffffffffffffffffffff168152602001906001019080831161111d575b5050505050905090565b600260009054906101000a900473ffffffffffffffffffffffffffffffffffffffff1673ffffffffffffffffffffffffffffffffffffffff163373ffffffffffffffffffffffffffffffffffffffff1614611234576040517f08c379a00000000000000000000000000000000000000000000000000000000081526004018080602001828103825260168152602001807f53656e646572206e6f7420617574686f72697a65642e0000000000000000000081525060200191505060405180910390fd5b6000600a60006009600081548092919060010191905055815260200190815260200160002090508381600001819055508281600101908051906020019061127c929190611437565b50818160020160006101000a81548173ffffffffffffffffffffffffffffffffffffffff021916908373ffffffffffffffffffffffffffffffffffffffff16021790555060008160020160146101000a81548160ff0219169083151502179055506000816003018190555050505050565b6000600a600083815260200190815260200160002090506000600860003373ffffffffffffffffffffffffffffffffffffffff1673ffffffffffffffffffffffffffffffffffffffff168152602001908152602001600020541161135057600080fd5b8060040160003373ffffffffffffffffffffffffffffffffffffffff1673ffffffffffffffffffffffffffffffffffffffff16815260200190815260200160002060009054906101000a900460ff16156113a957600080fd5b8060020160149054906101000a900460ff16156113c557600080fd5b60018160040160003373ffffffffffffffffffffffffffffffffffffffff1673ffffffffffffffffffffffffffffffffffffffff16815260200190815260200160002060006101000a81548160ff02191690831515021790555080600301600081548092919060010191905055505050565b828054600181600116156101000203166002900490600052602060002090601f016020900481019282601f1061147857805160ff19168380011785556114a6565b828001600101855582156114a6579182015b828111156114a557825182559160200191906001019061148a565b5b5090506114b391906114b7565b5090565b6114d991905b808211156114d55760008160009055506001016114bd565b5090565b9056fea265627a7a72315820226a458f62fa5991b26e8532f3b1c2f03903c25d06ddda9e8adfab5993ab472a64736f6c63430005100032",
  "source": "// SPDX-License-Identifier: MIT\r\npragma solidity >=0.4.22 <0.9.0;\r\n\r\ncontract Campaign {\r\n    struct Request {\r\n        uint amount;\r\n        string description;\r\n        address payable recipient;\r\n        bool isCompleted;\r\n        uint approvalsCount;\r\n        mapping(address => bool) approvals;\r\n    }\r\n\r\n    string public name;\r\n    string public description;\r\n    address public manager;\r\n    uint public minimumContribution;\r\n    uint public targetContribution;\r\n    uint public deadline;\r\n\r\n    address[] public approverAddresses;\r\n    uint public approversCount;\r\n    mapping(address => uint) public approvers;\r\n    uint public requestIndex;\r\n    mapping(uint => Request) public requests;\r\n\r\n    modifier onlyManager() {\r\n        require(msg.sender == manager, 'Sender not authorized.');\r\n        _;\r\n    }\r\n\r\n    constructor(\r\n        string memory campaignName,\r\n        string memory campaignDescription,\r\n        uint minimum,\r\n        uint target,\r\n        uint deadlineDate,\r\n        address creator\r\n    ) public {\r\n        name = campaignName;\r\n        description = campaignDescription;\r\n        minimumContribution = minimum;\r\n        targetContribution = target;\r\n        deadline = deadlineDate;\r\n        manager = creator;\r\n        approversCount = 0;\r\n        requestIndex = 0;\r\n    }\r\n\r\n    function contribution () public payable {\r\n        require(msg.value > minimumContribution, '');\r\n\r\n        if (approvers[msg.sender] == 0) {\r\n            approvers[msg.sender] = msg.value;\r\n            approverAddresses.push(msg.sender);\r\n            approversCount++;\r\n        }\r\n    }\r\n\r\n    function fallback() external payable{}\r\n\r\n\r\n    function createRequest(\r\n        uint amount,\r\n        string memory des,\r\n        address payable recipient\r\n    ) public onlyManager {\r\n        Request storage newRequest = requests[requestIndex++];\r\n        newRequest.amount = amount;\r\n        newRequest.description = des;\r\n        newRequest.recipient = recipient;\r\n        newRequest.isCompleted = false;\r\n        newRequest.approvalsCount = 0;\r\n    }\r\n\r\n    function approveRequest(uint index) public {\r\n        Request storage request = requests[index];\r\n\r\n        require(approvers[msg.sender] > 0);\r\n        require(!request.approvals[msg.sender]);\r\n        require(!request.isCompleted);\r\n\r\n        request.approvals[msg.sender] = true;\r\n        request.approvalsCount++;\r\n    }\r\n\r\n    function finalizeRequest(uint index) public onlyManager {\r\n        Request storage request = requests[index];\r\n\r\n        require(request.approvalsCount > (approversCount / 2));\r\n        require(!request.isCompleted);\r\n\r\n        request.recipient.transfer(request.amount);\r\n        request.isCompleted = true;\r\n    }\r\n\r\n    function getIsApprovedRequest(uint index) public view returns (bool) {\r\n        Request storage request = requests[index];\r\n        return request.approvals[msg.sender];\r\n    }\r\n\r\n    function getApproverAddresses() public view returns (address[] memory) {\r\n        return approverAddresses;\r\n    }\r\n\r\n    function getSummary()\r\n        public\r\n        view\r\n        returns (\r\n            string memory,\r\n            string memory,\r\n            uint,\r\n            uint,\r\n            uint,\r\n            uint,\r\n            uint,\r\n            uint,\r\n            address\r\n        )\r\n    {\r\n        return (\r\n            name,\r\n            description,\r\n            minimumContribution,\r\n            targetContribution,\r\n            deadline,\r\n            address(this).balance,\r\n            requestIndex,\r\n            approversCount,\r\n            manager\r\n        );\r\n    }\r\n}\r\n",
  "sourcePath": "G:\\My Study\\CNM\\CrowFunding\\crowdfunding-blockchain\\contracts\\Campaign.sol",
  "compiler": {
    "name": "solc",
    "version": "0.5.16+commit.9c3226ce.Emscripten.clang"
  },
  "schemaVersion": "3.4.1",
  "updatedAt": "2021-06-26T07:44:09.102Z",
  "devdoc": {
    "methods": {}
  },
  "userdoc": {
    "methods": {}
  }
}